:020000041008E2
:1000000000000828B54A0810FD4F0810114E0810CE
:100010000150081005500810095008100000000099
:10002000000000000000000000000000C14E0810A9
:100030000D50081000000000115008101550081055
:100040003B4908106149081087490810AD4908105C
:10005000D3490810F94908101F4A0810454A0810EA
:10006000195008101D500810215008102550081074
:10007000295008102D500810315008103550081024
:1000800040F0200070472DE9F14FB0B091463A9A08
:10009000049100200DF142011E464A7021910DF19C
:1000A00095020D902F920BE019F8011B0498309ADD
:1000B00090470028049000F066850D98401C0D9034
:1000C00099F8000050B12528EED1002200210792B6
:1000D000089109920A910B920C9104E00D9800F09E
:1000E00054BD41F0010119F8010F2028F9D023284F
:1000F0000CD02B2804D02D2805D0302809D00BE0B7
:1001000041F00201EFE741F00401ECE741F00801A2
:10011000E9E741F01001E6E72A280DD1326852F8EC
:10012000040B326000280F9003D540420F9041F03D
:10013000040109F1010914E00F92DFF8AC0B0AE0A9
:100140000F9C844205DA04EB840302EB4302303A4D
:100150000F9209F1010999F80020A2F130030A2B4E
:10016000EED399F800202E2A03D04FF0FF300E90E6
:1001700027E019F8010F2A2807D1326852F8040B3A
:1001800032600E9009F101091BE02D280CBF09F126
:100190000109002000220E92DFF84C5B0BE040B911
:1001A0000E9BAB4205DA03EB830402EB4402303AC8
:1001B0000E9209F1010999F80020A2F130030A2BEF
:1001C000EDD3ADF840100FF6643099F8001000F050
:1001D00021FE08B119F8010B8DF842009DF842008C
:1001E000682805D199F8001068290CD1622006E032
:1001F0006C2804BF99F800106C2904D171208DF887
:10020000420009F1010912A9069119F8012B8DF894
:1002100000201746B7F1250126D02039022940F2E7
:100220007D81133900F0EF830B3900F07984491E8A
:1002300000F02E84491E022940F27081091F00F04F
:100240002784491F00F0F080491E00F0DC83491E1E
:1002500000F0DB80C91E0ED0891E00F0D483C91EB9
:1002600000F0D18300F065BC0122252107928DF8B2
:10027000481000F06CBC306850F8044B3060002C23
:10028000059440F0B08021994878002800F0A780BC
:100290004FF0FF340FF6CC2000F0CCFD241A40F0D4
:1002A000728400F054BC01236A4602A9384600F06B
:1002B00025FD002840F06784641EF4D13097079C28
:1002C00012AF84B1DDF8C08017F8011B0498C04755
:1002D0000028049000F057840D98401C641E0D9077
:1002E000F2D1CDF8C0800A9C3021002C8DF800108E
:1002F0000CDD309F01236A4602A9384600F0FEFC5F
:10030000002840F04084641EF4D13097059F089C7B
:1003100084B1DDF8C08017F8011B0498C04700289D
:10032000049000F030840D98401C641E0D90F2D1B2
:10033000CDF8C0800B9C3021002C8DF800100CDD16
:10034000309F01236A4602A9384600F0D7FC0028F6
:1003500040F01984641EF4D1309705990898099CDF
:100360000F1884B1DDF8C08017F8011B0498C0474E
:100370000028049000F007840D98401C641E0D9026
:10038000F2D1CDF8C0800C9C3021002C8DF80010EB
:100390000CDD309F01236A4602A9384600F0AEFC0E
:1003A000002840F0F083641EF4D130979DF840009F
:1003B00041077FF585AE2020002D8DF800007FF7E6
:1003C0007FAE309C01236A4602A9204600F096FCCD
:1003D000002840F0D8836D1EF4D1309470E60FF6FB
:1003E000A0100590B3E30E9D002D04D5204600F02B
:1003F00041FD044607E02A46204600F057FD00284C
:1004000014BF041B2C460894A1E3316851F8040B77
:10041000316020F00002002121F0FF33CDE90223FA
:1004200012AC0594782177E32199487820B14FF0F8
:10043000FF340FF600102FE79DF84200622853D0DA
:10044000682815D06A2836D06C2806D071283CD090
:10045000742825D07A2818D053E0316851F8040B5D
:100460003160002857D14FF0FF340FF6E00013E75A
:10047000316851F8040B316020B94FF0FF340FF6AA
:10048000CC0009E70D99018061E3316851F8040B54
:10049000316000283FD14FF0FF340FF6B000FBE68B
:1004A000316851F8040B3160002834D14FF0FF342B
:1004B0000FF69800F0E6316851F8040B316070B91E
:1004C0004FF0FF340FF68400E6E6316851F8040B74
:1004D000316020B94FF0FF340FF67000DCE60D9A62
:1004E000D317C0E9002332E3316851F8040B3160BF
:1004F00020B94FF0FF340FF65400CDE60D9901708E
:1005000025E3316851F8040B316020B94FF0FF3416
:100510000FF63800C0E60D99016018E39DF842001F
:100520004C2807BF3168CA1D3068C21D22F007027F
:100530003260D2E9000108323260CDE90201C80F11
:1005400002D007982D210AE0BDF84000810702D5AE
:1005500007982B2103E0C00705D50798202112AA90
:100560001154401C079012A907980D18DDE90201EB
:10057000CDE92201059525AC0E98002848BF06203C
:1005800007D402BF9DF8000040F02000672801D189
:1005900001200E90DDE902AB4FEA4B0343EADA7328
:1005A0005A15DB174FF0FF30834208BF824210D14B
:1005B0004FEA0B3050EA1A504FEA0A3108BF0029BF
:1005C00007D0613F03201A2F089017D30FF2B8719C
:1005D0000FE0DDE902014A00521512F1010F10D1BE
:1005E00008030ED1613F03201A2F08901AD30FF28F
:1005F000A0710322284600F085FCA8E20FF2847166
:10060000F7E7DDE9020101AA00F0D0FCCDE9020123
:10061000DDE9022333F0004108BF002805D100279F
:100620000025B5E00FF26471E3E70199DFF8BC261D
:1006300047F29750414391FBF2F20192DDE92245E6
:10064000C2F10702002A25F0004504DD20462946B4
:1006500000F027FB0BE052420020DFF8941600F078
:1006600020FB02460B462046294600F0D7FC0446F4
:100670009DF8000040F0200A0D46BAF1660F06BF53
:10068000019F0A3706270E983F18142FC8BF14275A
:1006900030208DF894000DF19508002F34DD2046B0
:1006A000294600F0C4FC01460A4608F1080E042061
:1006B0000A23B2FBF3FC0CEB8C0BA2EB4B023032A7
:1006C0000EF8012C0A22BCFBF2F202EB8203ACEB27
:1006D00043033033401E0EF8023DE9D1083F002F9E
:1006E0000EF10808D9DD084600F0A8FC02460B46CA
:1006F0002046294600F0A9FC0022DFF8F83500F07A
:10070000ADFC04460D46CAE72F98A8EB00080DF192
:10071000950405E00198401EA8F101080190641CB1
:1007200020783028F6D0BAF1660F02D1019F7F1CE5
:1007300004E0BAF1650F0CBF012700270E983F189F
:10074000B845B8BFA8F10107002F20D4474505DA06
:10075000E05D3428C8BF4FF0390C01DC4FF0300C9D
:100760003946601E431800E07F1E13F80159491EE8
:100770006545F9D0BCF1390F02D1625C521C62545C
:10078000002904D504460198401C7F1C0190019D5E
:1007900038B29DF80080DDF838A0002802DC01277F
:1007A0000FF2F05448F02000662808BF6D1C17D0E7
:1007B00067280FFA85FB5AD11BF1040F43DBD345A1
:1007C00041DA9DF840006D1C010703D438B2504552
:1007D000D8BF824628B2BAEB000A48BF4FF0000AE1
:1007E0000FFA85F8B8F1000F00F3AA800898411CB1
:1007F0000891302205990A54BAF1000F03DC9DF8E4
:100800004010080705D50898411C08912E2205992B
:100810000A541AEB080FB8BFCAF100052DB268429E
:10082000AA443AB20B909245B8BF5746059B089828
:100830003FB209973A462146184400F063FBAAEB01
:1008400007050C95C8E038B2504504DA9DF8402001
:10085000110758BF8246BAF1010A48BF4FF0000A9B
:10086000B8F1670F0CBF4FF065084FF045080898C6
:10087000421C0892BAF1000F059A14F8011B11549A
:1008800003DC9DF8400001071BD50898421C089224
:100890002E21059A1154BAF1000F12DD7F1E38B2D5
:1008A0008245B8BF5746059B08983AB2214618447E
:1008B00000F028FB08983FB238180890AAEB070010
:1008C0000B90059908980844BBF1000F80F8008050
:1008D00003D42B214170811C04E02D2141705D4621
:1008E000811C6D42002022AA0AE02B460A2593FBB8
:1008F000F5F505EB8504A3EB440302F8013B401C2E
:100900002DB2002DF1DC012806DC48F02002652A1A
:1009100004BF302201F8012B002822AB08D130207F
:1009200001F8010B06E0401E1A5C303201F8012B81
:100930000028F8DC059A08981044091A09914BE040
:1009400039B228B281421DDA0598089B3AB2214695
:10095000184400F0D7FA08993FB279180891A8EB2B
:100960000700BAF1000F0B9003DC9DF84020100740
:1009700005D505982E2242540999491C0991CDF8B4
:1009800030A029E00598089B2AB22146184400F0BF
:10099000B9FA08987F1B4044BAF1000F089003DCB5
:1009A0009DF840100A0704D5411C08912E22059994
:1009B0000A5438B28245B8BF57460598089B3AB2E8
:1009C00004EB0801184400F09DFA08983FB238186B
:1009D000AAEB070708900B979DF8400000F0140061
:1009E000102840F0B480079A08980B99821809984B
:1009F0008A1882180C980F998018884280F2A78074
:100A0000081A0A90A3E09DF84200622808D06828DE
:100A10000CD06A2810D06C2818D071280CD015E0A2
:100A2000316851F8040B3160C0B213E0316851F8FD
:100A3000040B316080B20DE03068C21D22F0070265
:100A40003260D2E900010832326004E0316851F8C6
:100A5000040B31600021CDE902019DF8400002073E
:100A600054D5DDE90201002908BF00284ED09DF8C9
:100A7000000040F02000782848D1079912A83023C0
:100A80004354491C4A1C07929DF8002042543DE003
:100A90009DF84200622808D068280CD06A2810D03F
:100AA0006C2818D071280CD015E0316851F8040B6F
:100AB000316040B213E0316851F8040B316000B28C
:100AC0000DE03068C21D22F007023260D2E9000159
:100AD0000832326004E0316851F8040B3160C1170C
:100AE000CDE90201002902D507982D220AE0BDF8C0
:100AF0004010880702D507982B2203E0C80705D5C8
:100B00000798202212A90A54401C079012A807999E
:100B1000014405919DF8001002A800F039F816E094
:100B200001200790316851F8040B31608DF84800BE
:100B30000DE00120079025229DF800008DF8482047
:100B400028B19DF800008DF84900022107910F9D02
:100B500007990A986D1A08992D1A0B986D1A099918
:100B60002D1A0C986D1A9DF840102D1A4A073FF562
:100B7000A6AB2020002D8DF800007FF7A0AB309FA2
:100B80002C46FFF790BB4FF0FF3031B0BDE8F08F3F
:100B90002DE9FE4C06468B46376958466F2808BF3C
:100BA000082205D0FFF76CFA782814BF0A22102219
:100BB000D6E900013C2504468A46BBF1640F18BF04
:100BC000BBF1690F04D1002902D564426AEB4A0ADD
:100BD000BAF1000F08BF002C0CD1306B50B9082AB5
:100BE0003BD196F83810080737D530213B2587F8D8
:100BF0003B1032E08DF800B09346204651465A46ED
:100C0000002300F035FA3032D0B26D1E3A2801953B
:100C10000DDA7A55204651465A46002300F028FA4C
:100C200004465FEA010A08BF002C05D108E09DF8E0
:100C300000001218513AECE7F16878198142DCD3D0
:100C4000BBF1080F09D196F83800010705D5785D8A
:100C5000302802D06D1E30207855C5F13C02306B33
:100C6000B26179198242F16007DA318F821A4FF648
:100C7000EF7001403262318710E000280ED596F8FF
:100C8000380000F01400102808D1736B7069316AC5
:100C90001B1A5B1A9B1A002BC8BF336203B0BDE856
:100CA000F08C2DE9D04306460F4614464FF000085D
:100CB000DFF8449012E0E00707D542464B46304645
:100CC000394600F0CBF906460F46404649464246B3
:100CD0004B4600F0C3F9641080468946002CEAD1E7
:100CE00030463946BDE8D083CBCCCC0CA086010081
:100CF0000000F03F84D7974100002440F8B5054636
:100D00000E4617461C4600205CB117F8011BB06860
:100D1000A847B06030B1F06A401CF0620020641E49
:100D2000F3D1F2BD4FF0FF30F2BD0000686A6C7481
:100D30007A4C00007072696E74665F733A20256E9B
:100D400020646973616C6C6F776564007072696EA2
:100D500074663A2062616420256E20617267756D49
:100D6000656E74007072696E74665F733A206261BA
:100D70006420257320617267756D656E74000000D4
:100D8000000000006E616E004E414E00696E66000C
:100D9000494E46003000F0B40246106895681318BA
:100DA000506803EB5004C00748BF4D44A3422DD008
:100DB00013F8016B16F0030004BF13F8010BC01CFD
:100DC00031090F2907D113F8011B0F3103E013F884
:100DD000017B05F8017B401EF9D10029E6D013F80C
:100DE000010BC6F38107032F08BF13F8017B00EB4B
:100DF0000720404228440026B71E8F421EBF10F82D
:100E0000017B05F8017B761CF6D1CFE7F0BC02F13F
:100E10000C007047C9B202788A421AB11CBF10F8A0
:100E2000012FF9E718BF0020704703685A1C0260C1
:100E30001970704780B500B906A005490B681BB151
:100E400022220021984701E000F02AFA222002BD68
:100E5000CC080228636F6E73747261696E742068C7
:100E6000616E646C65723A20626164206D657373B3
:100E70006167650000F10103810704D010F8011BD0
:100E8000820781B1FAD10268A2F10131914311F0D8
:100E9000803104BF50F8042FF6E709BAB1FA81F1A6
:100EA00000EBD100401CC01A70470000C9B2830794
:100EB00006D0521E22D310F8013B9942F7D11FE011
:100EC000083A13D302F1040241EA012141EA014147
:100ED00050F8043B121F21BF4B40A3F1013C2CEA08
:100EE000030C1CF0803FF3D0C9B2001F083210F889
:100EF000013B521E28BF91EA030FF8D818BF01200A
:100F0000401E704762B38B0708D0521E11F8013B98
:100F100000F8013B00F024808B07F6D1830740F0F6
:100F2000208000BF103A07D330B4B1E83810103A2F
:100F3000A0E83810F9D230BC530724BFB1E808103C
:100F4000A0E8081044BF51F8043B40F8043BD20726
:100F500024BF31F8022B20F8022B44BF0B7803701A
:100F60007047121F17D35B0009D151F8043B20F8DA
:100F7000023B1B0C121F20F8023BF6D20BE051F88B
:100F8000043B00F8013B1B0A20F8023B1B0C121F1C
:100F900000F8013BF3D238BF121D521E24BF11F8D6
:100FA000013B00F8013BF8D87047000010B514462B
:100FB00000F002F8226010BDC1F30A5343B14A00A9
:100FC00012F5001F28D2A3F2FE32A1EB02517047A6
:100FD00050EA410C20D001F0004C31EA0C01B1FA8A
:100FE00081F204BFB0FA80F3D2180B3AB2F12003B9
:100FF0002CBF00FA03F1914041EA0C013EBFC2F15F
:10100000200C20FA0CF319439040524240F2FD3379
:10101000D21A01EB035170470022704741EC110BCB
:1010200043EC102B81EE000B51EC100B704741ECA0
:10103000100BBCEEC00B10EE100A704700EE100A49
:10104000B8EE400B51EC100B704741EC110B43EC28
:10105000102B31EE400B51EC100B704741EC110B93
:1010600043EC102B21EE000B51EC100B70470000ED
:10107000BBBBE1B1B2F5803F80F07E80022A1ED971
:101080008C46B1FBF2F102FB11C31B0443EA10438F
:10109000B3FBF2FC02FB1C3380B240EA0343B3FB18
:1010A000F2F002FB103240EA0C4000237047022AA3
:1010B00005D98446B0FBF2F002FB10C270474AB17A
:1010C00005D100F0010249085FEA300070470022B4
:1010D0000023704700F0E8B80B0002000021002058
:1010E0007047904271EB030CF6D3B3F5803F2FD2DB
:1010F000F0B5B3FA83F7B1FA81F4A7F10F0E3D1BF7
:101100005340CEF1200602FA0EF2F3415340B5F1FE
:101110000F0746D80F3C2C444140C4F12006A040A4
:10112000F1414140B1FBF3F603FB1611A2FB06456A
:10113000001BA94102D2761E8018594180EA0102A3
:1011400021FA0EF362FA0EF200215A403046F0BD49
:1011500030B4B1FBF3FC03FB1C11A2FB0C45001BDC
:10116000A94103D2ACF1010C8018594130BC0246B0
:101170000B46604600217047B2F1807F65D3F0B521
:10118000B2FA82F7B1FA81F4C7F10F063D1B22FAD9
:1011900006F307F1110EF24120355A40B5F10F0761
:1011A000B8D94140C4F12006A040F1414140B1FB13
:1011B000F3FC03FB1C11A2FB0C45001BA94103D24D
:1011C000BCF1010C801859410F2F12D30F3FC903F6
:1011D00041EA5041B1FBF3F603FB1611A2FB0645B1
:1011E000D4EBC030A94102D2761E8018594146EA9C
:1011F000CC3C07B34140C7F12006B840F141414023
:10120000B1FBF3F603FB1611A2FB0645001BA94137
:1012100002D2761E8018594180EA010221FA0EF3AB
:10122000C7F1200462FA0EF20CFA07F05A402CFAC9
:1012300004F13043F0BD80EA010221FA0EF30021EF
:1012400062FA0EF260465A40F0BD8C46B1FBF2F1F4
:1012500002FB11C31B0243EA1063B3FBF2FC02FB67
:101260001C331B024CEA002043EA1063B3FBF2FC80
:1012700002FB1C331B024CEA002043EA1063B3FB61
:10128000F2FC02FB1C331B024CEA002043EA106311
:10129000B3FBF2FC02FB1C324CEA00200023704737
:1012A000012000F003B800007047000080B5AFF3E4
:1012B0000080024A11001820ABBEFBE726000200A6
:1012C00001210170012141700021416000218160F4
:1012D0000021C16000210161002141610021816183
:1012E0000021C16100210162002141620021C0F89A
:1012F000CC10DFF8D81AC0F8C810DFF8D41AC0F83C
:10130000C410002101640021416400218164002196
:10131000C16400210165002141655FF07E510163D8
:1013200000214163002181630021C16300214166E6
:10133000002181660021C16600210167002141670B
:10134000002181670021C1670021C0F880100021C1
:10135000C0F884100021C0F894100021C0F8981043
:101360000021C0F89C100021C0F888100021C0F8AE
:101370008C100021C0F890100021C0F8AC100021A2
:10138000C0F8B0100021C0F8B4100021C0F8A010BF
:101390000021C0F8A4100021C0F8A8100021C0F856
:1013A000B8100021C0F8BC100021C0F8C010002106
:1013B00001660021C1650021816570472DE9F0417A
:1013C00004000D001600DFF80C7AD4ED020A94ED4B
:1013D000020A20EE800A94ED011AD4ED010A01EE12
:1013E000200A00F0FDFC87ED000ADFF8EC89D4ED5F
:1013F000020A94ED020A20EE800A94ED001AD4ED60
:10140000000A01EE200A00F0EBFC88ED000A94EDE2
:10141000020AB5EE400AF1EE10FA04D5FF21DFF81A
:10142000BC09017003E00120DFF8B0190870DFF893
:10143000AC09D7ED000A95ED000A20EE800A01788C
:1014400000EE901AB8EE601AD4ED000A21EE201AD0
:10145000D5ED020A01EE600A86ED000A007800EE82
:10146000100AB8EE400AD8ED000A60EE200A95EDA9
:10147000010A20EE801AD4ED010A95ED020A00EE71
:10148000C01A86ED011A94ED000AD5ED000A20EE8F
:10149000200A94ED011AD5ED010A01EE200A94ED1F
:1014A000021AD5ED020A01EE200A86ED020ABDE815
:1014B000F081000010B52DED0E8B86B00400B0EE6B
:1014C00040EA2078002800F07D846078012860D10F
:1014D00094ED2B0AD4ED2B0A20EE200AD4ED2C0A31
:1014E00094ED2C1A00EE810A00F07AFCD4ED2B0A60
:1014F000F5EE400AF1EE10FA1ED0D4ED2C0AF5EE0E
:10150000400AF1EE10FA17D0D4ED2D0AF5EE400A9C
:10151000F1EE10FA10D0B5EE400AF1EE10FA0BD051
:10152000D4ED2B0AC0EE800A94ED2C1A81EE000A4D
:1015300000F07AFD84ED0A0A94ED210AB5EE400A26
:10154000F1EE10FA22DD94ED160AD4ED0A0A30EE1F
:10155000600A00F069FCD4ED310A20EE800A84EDC7
:101560000B0AD4ED0B0A9FEDAB0AF4EE400AF1EE44
:1015700010FA08DA94ED0B0ADFEDA70AB4EE600A60
:10158000F1EE10FA07D50020E06204E00020E062EE
:1015900001E00020E062606890ED000A6068D0ED34
:1015A000000A20EE200AA06890ED001AA068D0ED95
:1015B000000A01EE200AE06890ED001AE068D0ED24
:1015C000000A01EE200A00F00BFC6068D0ED000A72
:1015D000F5EE400AF1EE10FA03DD606890ED001AB6
:1015E00004E06068D0ED000AB1EE601ADFED8B0A0E
:1015F000B4EE601AF1EE10FA40F19980A06890ED17
:10160000001AB5EE401AF1EE10FA03DDA06890ED75
:10161000001A04E0A06890ED001AB1EE411AB4EE91
:10162000601AF1EE10FA40F18280E06890ED001A45
:10163000B5EE401AF1EE10FA03DDE06890ED001A05
:1016400004E0E06890ED001AB1EE411AB4EE601AC1
:10165000F1EE10FA6BD56068D0ED000AC0EE800A9A
:10166000B0EE608AA068D0ED000AC0EE800AF0EE0D
:10167000608AE068D0ED000AC0EE800AB0EE609AA1
:10168000DFED670AB4EE600AF1EE10FA55DBDFED2C
:10169000650AB4EE600AF1EE10FA4ED594ED210A17
:1016A00068EE800A94ED1E0A49EE400AF0EE60CA28
:1016B00094ED1B0A29EE000AD4ED210A08EE600A17
:1016C000B0EE40DA94ED1E0A28EE001AF0EE680A39
:1016D00094ED1B0A00EEC01AF0EE41DA9FED520ABB
:1016E0006EEE000A94ED101A3CEEC11AD4ED101AF9
:1016F00040EE811AC4ED101A6EEE000A94ED111A34
:101700003DEE411AD4ED111A40EE811AC4ED111AC2
:101710002EEE000AF0EE6D0A94ED121A70EEC10A78
:1017200094ED121A00EE201A84ED121A05E0002042
:101730002064002060640020A064D4ED100A94EDC1
:10174000330A60EE800A94ED130A00EE8E0A84EDEF
:10175000130AD4ED110A94ED330A20EE800AD4ED79
:10176000140A40EE0E0AC4ED140AD4ED120A94EDE8
:10177000330A60EE800A94ED150A00EE8E0A84EDBD
:10178000150A9FED2A0AD4ED130AF4EE400AF1EE91
:1017900010FA02D5F0EE400A0DE094ED131ADFEDD9
:1017A000240AB4EE601AF1EE10FA02DBDFED210A32
:1017B00001E0D4ED130AC4ED130AD4ED140AF4EEDB
:1017C000400AF1EE10FA02D5F0EE400A0DE094ED79
:1017D000141ADFED170AB4EE601AF1EE10FA02DB0C
:1017E000DFED140A01E0D4ED140AC4ED140AD4EDBF
:1017F000150AF4EE400AF1EE10FA1FD4D4ED150AE2
:101800009FED0B0AF4EE400AF1EE10FA14DB9FEDA7
:10181000090A13E00100B4430000B4C3004083444C
:101820000100484400009644C3F54840295C0FBDC0
:101830002A5C0F3D295C0F3D94ED150A84ED150AD5
:101840009FED010A02E000BF34FA8E3C94ED1B1AB2
:10185000D4ED0B1A2069D0ED000A41EE610A94ED37
:10186000322A94ED101AD4ED131A42EE011A40EE0A
:10187000801AC4ED2E1AD4ED1E1A94ED0B1A60696D
:10188000D0ED000A41EEC10A94ED321AD4ED111ADE
:1018900094ED142A01EE212A00EE802A84ED2F2AED
:1018A00094ED211AD4ED0B1AA069D0ED000A41EE97
:1018B000610A94ED321AD4ED121A94ED152A01EE54
:1018C000212A00EE802A84ED302A94ED0D0AF1EEF3
:1018D000400A94ED2E0A20EE800A94ED0E1AD4ED03
:1018E0002F0A01EE600A94ED0F1AD4ED300A01EED2
:1018F000600A60EE0E0AB0EE000AC0EE800A94EDB7
:101900000C0A30EE800A84ED0C0AD4ED0C0A94ED3A
:101910002E0A20EE800A94ED0E1AD4ED300A01EE64
:10192000200A94ED0F1AD4ED2F0A01EE600A60EE42
:101930000E0AB0EE000AC0EE800A94ED0D0A30EEF9
:10194000800A84ED0D0AD4ED0C0A94ED2F0A20EEE6
:10195000800A94ED0D1AD4ED300A01EE600A94ED80
:101960000F1AD4ED2E0A01EE200A20EE0E0AF0EE38
:10197000000AC0EE200A94ED0E0A30EE800A84EDD3
:101980000E0AD4ED0C0A94ED300A20EE800A94ED94
:101990000D1AD4ED2F0A01EE200A94ED0E1AD4EDA3
:1019A0002E0A01EE600A20EE0E0AF0EE000A80EE2A
:1019B000200AD4ED0F0A30EE200A84ED0F0A94EDD0
:1019C0000C0AD4ED0C0A20EE200AD4ED0D0A94ED99
:1019D0000D1A00EE810AD4ED0E0A94ED0E1A00EEF7
:1019E000810AD4ED0F0A94ED0F1A00EE810A00F07F
:1019F000F7F9B5EE400AF1EE10FA17D0D4ED0C0A63
:101A0000C0EE800AC4ED0C0AD4ED0D0AC0EE800AC7
:101A1000C4ED0D0AD4ED0E0AC0EE800AC4ED0E0A24
:101A2000D4ED0F0A80EE800A84ED0F0A94ED0C0AC3
:101A3000D4ED0C0A20EE200AD4ED0D0A94ED0D1A17
:101A400000EE810AD4ED0E0A94ED0E1A00EEC10AE2
:101A5000D4ED0F0A94ED0F1A00EEC10A84ED190AB5
:101A6000B0EE000AD4ED0D0A94ED0E1A60EE811A64
:101A700094ED0C1AD4ED0F0A41EE201A61EE800AA3
:101A8000C4ED1A0AD4ED0D0A94ED0F1A60EE811A16
:101A900094ED0C1AD4ED0E0A41EE601A61EE800A44
:101AA000C4ED1B0AD4ED0D0A94ED0E1A60EE811AF6
:101AB00094ED0C1AD4ED0F0A41EE601A61EE800A23
:101AC000C4ED1C0AD4ED0C0A94ED0C1A60EE810AE8
:101AD00094ED0D1AD4ED0D1A41EE610AD4ED0E1AF3
:101AE00094ED0E1A41EE810AD4ED0F1A94ED0F1AFF
:101AF00041EEC10AC4ED1D0AD4ED0E0A94ED0F1A91
:101B000060EE811A94ED0C1AD4ED0D0A41EE201A04
:101B100061EE800AC4ED1E0AD4ED0D0A94ED0F1A91
:101B200060EE811A94ED0C1AD4ED0E0A41EE201AE3
:101B300061EE800AC4ED1F0AD4ED0E0A94ED0F1A6F
:101B400060EE811A94ED0C1AD4ED0D0A41EE601A84
:101B500021EE800A84ED200A94ED0C0AD4ED0C0AE3
:101B600020EE200AD4ED0D0A94ED0D1A00EEC10A04
:101B7000D4ED0E0A94ED0E1A00EEC10AD4ED0F0A50
:101B800094ED0F1A00EE810A84ED210A6078012895
:101B900044D194ED190AE069D0ED000A20EE200A44
:101BA000D4ED1C0A206A90ED001A00EE810AD4EDF3
:101BB0001F0A606A90ED001A00EE810A84ED250A82
:101BC00094ED1A0AE069D0ED000A20EE200AD4ED67
:101BD0001D0A206A90ED001A00EE810AD4ED200A59
:101BE000606A90ED001A00EE810A84ED260A94EDF9
:101BF0001B0AE069D0ED000A20EE200AD4ED1E0A8F
:101C0000206A90ED001A00EE810AD4ED210A606A84
:101C100090ED001A00EE810A84ED270A94ED190A6E
:101C20006068D0ED000A20EE200AD4ED1C0AA068FE
:101C300090ED001A00EE810AD4ED1F0AE06890EDE5
:101C4000001A00EE810A84ED220AD4ED1A0A6068B7
:101C500090ED000A20EE800AD4ED1D0AA06890EDF8
:101C6000001A00EE810A94ED201AE068D0ED000A17
:101C700001EE200A84ED230A94ED1B0A6068D0ED82
:101C8000000A20EE200AD4ED1E0AA06890ED001A8A
:101C900000EE810AD4ED210AE06890ED001A00EE12
:101CA000810A84ED240AD4ED1E0A94ED210A00F085
:101CB000BBF984ED170A94ED1B0A00F01FFAB1EE90
:101CC000400A84ED180AD4ED1A0A94ED190A00F0BE
:101CD000ABF984ED160A94ED160A00F001F9B0EEA6
:101CE000408A94ED160A00F0B9F8D4ED220A60EEAD
:101CF000880A94ED231A41EE000AC4ED280A94EDF7
:101D0000160A00F0ABF8B0EE408A94ED160A00F027
:101D1000E7F8D4ED220AF1EE600A60EE880A94ED4D
:101D2000231A41EE000AC4ED290AD4F89000C4F841
:101D3000A8006078012845D194ED1B0AB0EE40BAA6
:101D400094ED1E0AF0EE40BA94ED210AB0EE40CABE
:101D500003A880EC03BAE06990ED000AF0EE409A27
:101D6000206A90ED000AB0EE40AA606A90ED000A89
:101D7000F0EE40AA6846C0EC039AE06990ED000AD4
:101D8000E069D0ED000A20EE200A206A90ED001AEA
:101D9000206AD0ED000A01EE200A606AD0ED000A48
:101DA000606A90ED001A00EE810A00F019F8B5EEB5
:101DB000400AF1EE10FA05D014F1AC02694603A80E
:101DC000FFF7FCFA06B0BDEC0E8B10BD6666263F31
:101DD0006666E63EA8080228AC080228E308022846
:101DE00081B0F7EE080AB6EE001A20EE011A8DED6A
:101DF000000A0099DFF83803B0EB61000090DDEDD8
:101E0000002A61EE221AB0EE602A01EEE22A62EEAA
:101E1000221A21EE211A41EE610A60EEA10A20EE9B
:101E2000200A01B07047000003E0DFED7D0A30EECC
:101E3000200ADFED7C0AB4EE600AF1EE10FAF4DA63
:101E4000DFEDA40AB4EE600AF1EE10FA04D5DFED7E
:101E5000A20A30EE200AF3E77047000080B5FFF7D2
:101E6000E3FFF0EE400A9FED9D0A60EE800A9FEDD1
:101E70009C0A80EE800AB5EE400AF1EE10FA08D511
:101E80009FED981ADFED980A40EE010A20EE800AD5
:101E900007E09FED941ADFED940A40EE410A20EE30
:101EA000800AB5EE400AF1EE10FA0CD5F7EE000A02
:101EB00070EE201ADFED8D0AB7EE001A01EEA01ABF
:101EC00021EE000A0BE0FFEE000A70EE201ADFEDB3
:101ED000880AB7EE001A01EEA01A21EE000A01BD31
:101EE00080B5DFED840A30EE200AFFF7B7FF01BDB1
:101EF000B5EE400AF1EE10FA02DDB0EE401A01E054
:101F0000B1EE401ADFED7C0AB4EE601AF1EE10FA81
:101F10004EDBF7EE000AC0EE800AF5EE400AF1EE65
:101F200010FA04DDF7EE000A80EE801A05E0F7EE05
:101F3000000AC0EE800AB1EE601AF7EE000AC0EEA9
:101F4000800AF5EE400AF1EE10FA04DDF7EE000A21
:101F5000C0EE800A05E0F7EE000AC0EE800AF1EE5E
:101F6000600AF7EE001AC1EE801AF5EE401AF1EEA3
:101F700010FA04DDF7EE001AC1EE801A05E0F7EE64
:101F8000001AC1EE801AF1EE611ABFEE002A70EE5F
:101F9000820ADFED642AB2EE0C2A01EEA22ADFEDFE
:101FA000601A40EE821ADFED530A41EE810A2DE0FD
:101FB000B5EE400AF1EE10FA02DDF0EE400A01E063
:101FC000F1EE400AB5EE400AF1EE10FA02DDB0EE95
:101FD000402A01E0B1EE402AB5EE400AF1EE10FAD7
:101FE00002DDB0EE401A01E0B1EE401AFFEE001A39
:101FF00072EE211ADFED4B2AB2EE0C2A01EE222AF4
:102000009FED4C1A01EEC21A61EE200AB5EE400AAD
:10201000F1EE10FA01DCF1EE600AB0EE600A7047F2
:102020000000B4C30100344380B52DED028BB0EE47
:10203000408AB5EE408AF1EE10FA07D1F5EE400A7B
:10204000F1EE10FA02D19FED390A40E0B5EE408A78
:10205000F1EE10FA0AD1F5EE400AF1EE10FA02DDC7
:102060009FED240A33E09FED300A30E0F5EE400AA0
:10207000F1EE10FA0AD1B5EE408AF1EE10FA02DD67
:102080009FED2A0A23E09FED130A20E080EE880AE4
:10209000FFF72EFFB5EE408AF1EE10FA09D5B5EE46
:1020A000400AF1EE10FA04DDDFED0A0A30EE200AF4
:1020B0000DE0B5EE408AF1EE10FA08D5B5EE400A13
:1020C000F1EE10FA03D5DFED060A30EE200ABDEC82
:1020D000028B01BD000034C30000B443DB0F494054
:1020E000000034437B81CF3E83F9A23F666666BE23
:1020F0006666663E0000B4420100803F80B52DED6B
:10210000028BB0EE408AB7EE000A08EE480AFFF7ED
:1021100067FE88EE000AFFF7EBFEBDEC028B01BD07
:10212000000034C2B81E75400000B4C200000000B8
:10213000DF59375F00003442DFF8C4110868C0F38C
:102140004000002801D0022002E0086810F00100E1
:102150007047DFF8B001006810F001007047000020
:10216000C21E022A01D3012002E0C01E0860002026
:1021700070471CB5FF246946FFF7F2FFC0B2002884
:1021800002D02000C0B207E0DFF87C11009851F8BF
:10219000200010F00100C0B216BD0000002801D0E0
:1021A000032801D3012002E0401E08600020704790
:1021B0001CB5FF246946FFF7F1FFC0B2002802D02A
:1021C0002000C0B208E0DFF8C4010099090108440A
:1021D000C06810F00100C0B216BD0000DFF8BC01FD
:1021E0000068800810F00100704738B50400200036
:1021F000C0B2082811D3DFF898511822DFF89411E3
:10220000280000F00DFC0020E87540F65B01DFF8C7
:1022100088010160002000F03BFCDFF8CC112000B9
:10222000C0B251F82000C0F30020002805D0E4B26D
:1022300051F8240010F00F0000E0FF2032BD38B547
:1022400004002000C0B2082811D3DFF8445118223E
:10225000DFF84011280000F0E3FB0020E8754FF4A0
:102260000961DFF834010160002000F011FCDFF8A3
:102270007801E4B250F82400C0F30110C0B232BDBE
:10228000DFF868211368C3F3072303601068C0F305
:10229000C40008607047DFF858211368C3F30723B0
:1022A00003601068C0F3C4000860704738B50400CC
:1022B000072C11D3DFF8D8501822DFF8C4112800FA
:1022C00000F0AEFB0020E8754FF4CE71DFF8C800D7
:1022D0000160002000F0DCFBDFF8A00150F82400D2
:1022E00010F00700010009B2042907D1DFF88801C6
:1022F00050F8240010F01F0050F4807000B232BD7E
:10230000241526404015264040162640DFF8AC1222
:102310000A689103890B0160120E12F00102C2716A
:10232000DFF89C1209680A00D204D20C82800A00ED
:10233000120C02F0FF020281090C01F0FF01418141
:10234000DFF84011096811F00F0202730A00C2F3AE
:10235000031242730A00120AD204D20CC281090F7E
:1023600011F003010174DFF8601309680A00120A12
:1023700012F0070282710A00120CD205D20D4282BD
:10238000890F11F001010175704700000019264006
:1023900068080228644B0810A4080228100027408F
:1023A0001CB50C006946FFF7DBFE0100C9B200292D
:1023B00001D0C0B217E0DFF8B414009851F8200043
:1023C00010F07F012160C0F304216160C0F304417B
:1023D000A1600100090F11F003016173C00E10F03C
:1023E00001002073002016BD401226400800204046
:1023F000080420401CB50C006946FFF7CFFE010021
:10240000C9B2002901D0C0B235E0DFF8101500983C
:102410000001085800F0FF022260C0F3042262604D
:10242000C0F30442A260000F10F003002073009874
:102430000001084442681000C00F6073C2F30270CC
:10244000002801D0012000E00020A07322F07F428C
:10245000226100980001084480680100C90F2175BD
:102460000100090E11F001016175A075000C10F05A
:102470000700E075002016BD00012640001226402E
:10248000BC4B08103815264080B50100DFF8680500
:102490001822FEF747FD0121DFF8600501700020DA
:1024A00002BDDFF85C150968C90F002908D0DFF804
:1024B0004C150978002907D10021016003207047DD
:1024C000002101600320FAE7DFF82C15096801609C
:1024D0000020F4E710B50400FFF72EFE002803D11A
:1024E0000020206003200DE0DFF8100500780028B0
:1024F00005D0DFF8040580682060002002E000209D
:102500002060032010BD0000DFF8F01409780029D6
:1025100005D0DFF8E41449680160002002E00021E2
:10252000016003207047DFF8DC140968C90F002937
:1025300008D0DFF8C8140978002907D1002101600C
:1025400003207047002101600320FAE7DFF8A81498
:10255000C96801600020F4E7DFF8AC140968C90F0E
:10256000002908D0DFF894140978002907D1002148
:10257000016003207047002101600320FAE7DFF8C3
:102580007814096901600020F4E710B50400FFF732
:1025900025FE002803D10020206003200DE0DFF895
:1025A0005C040078002805D0DFF84C044069206006
:1025B000002002E000202060032010BD30152640DE
:1025C0003415264010B50C00C0B2FFF76FFE00288E
:1025D0000ED0012810D0022812D0B0F5887F13D079
:1025E00040F21111884213D0B0F58A7F14D017E061
:1025F0002000FFF756FF16E02000FFF785FF12E0EE
:102600002000FFF767FF0EE02000FFF78CFF0AE0D5
:102610002000FFF7BAFF06E02000FFF79DFF02E071
:1026200000202060032010BD80B501000020FFF7CE
:10263000C9FF02BD80B50322D2B2824203D200207C
:102640000860012003E0401CC0B2FFF7BBFF02BDE1
:1026500018B587B004006846FFF7E6FF0100C9B26D
:10266000002903D000212160C0B22BE001A8FFF7B0
:102670004DFE9DF81400022803D100982060002030
:1026800020E0DFF888030068C00F002808D0FFF7BB
:1026900060FDC0B2002807D100202060032011E0B7
:1026A0000098206000200DE0009901984143BDF89A
:1026B0000800B1FBF0F19DF80B00401CB1FBF0F0FD
:1026C0002060002008B010BD3C152640F0B58BB04E
:1026D00005000C0069462800C0B2FFF7ABFF0100FF
:1026E000C9B2002903D000212160C0B2BCE028009B
:1026F000C0B202284CD307A92800C0B2401CFFF783
:102700004FFEC0B2002811D0DFF804631822DFF8B2
:102710000413300000F084F90020F07540F66311D6
:10272000DFF8F4020160002000F0B2F94F49280000
:10273000C0B201EB800050F8080CC00F002807D091
:102740009DF82900022807D10098206000208BE026
:1027500000982060002087E0EDB26D1C2800FFF794
:1027600008FD0100C9B2002902D0C0B2FF2803D180
:1027700000202060032077E00099079841430898E3
:10278000B1FBF0F10998B1FBF0F0206000206BE0A4
:1027900001A92800C0B2401CFFF72CFEC0B20028DF
:1027A00011D0DFF86C621822DFF86812300000F0F8
:1027B00037F90020F07540F67F10DFF85C120860F2
:1027C000002000F065F955482900C9B209014058B8
:1027D000C00F002807D09DF81000022807D10098EC
:1027E0002060002040E00098206000203CE0EDB236
:1027F0006D1C2800FFF7DCFC0100C9B2002902D0E3
:10280000C0B2FF2803D10020206003202CE09DF8F7
:10281000110001281DD1009A0023019E00273F06C8
:1028200047EA162736060598002136184F41A6FBC1
:10283000020106FB031107FB0211029A039BA3FB93
:102840000223FEF715FC000E40EA0120090E20606D
:1028500009E00099019841430298B1FBF0F1039817
:10286000B1FBF0F0206000200BB0F0BD0016264058
:1028700010B50323421E0400E4B2002C03D108006B
:10288000FFF7E6FE0CE01400DBB2E4B2A34204D38F
:102890001000C0B2FFF71AFF02E0C0B2FFF792FECD
:1028A00010BD38B505000C002800C0B2FFF79DFC34
:1028B0000100C9B2FF2904D12000FFF7F2FDC0B228
:1028C0001BE06946C0B2FFF7D3FF0100C9B200297F
:1028D00003D000212160C0B20FE02800C0B2FFF792
:1028E000AEFCC0B2002805D002280BD006D30328C6
:1028F0000CD00FE000982060002032BD0098400806
:102900002060F9E7009880082060F5E70098C0088B
:102910002060F1E7002020600320EEE70019264048
:102920001FB5040002A90120FFF7BBFF0100C9B2D7
:10293000002903D000212160C0B21AE0694601A835
:10294000FFF79EFC01980021421C71F1FF335B01EF
:1029500043EAD26352010098002112184B410298B9
:102960000021490141EAD0614001FEF781FB20606E
:10297000002004B010BD1FB5040002A90120FFF71C
:1029800090FF0100C9B2002903D000212160C0B22C
:102990001AE0694601A8FFF77EFC01980021421C5D
:1029A00071F1FF335B0143EAD263520100980021C9
:1029B00012184B4102980021490141EAD0614001BF
:1029C000FEF756FB2060002004B010BD80B5DFF894
:1029D0004C100A68C2F303220E2A07D00968C1F31B
:1029E00003210D2905D1FFF7C6FF02BDFFF798FFB0
:1029F000FBE70120F9E7000050080228E20802285E
:102A000018152640081526400C152640301526407E
:102A100068080228BC4B0810A408022800002040C7
:102A200001B58B071AD1830724D1121F21D351F886
:102A3000043BA3F1013C2CEA030C1CF0803C04BFD6
:102A400040F8043BF1E79CFA8CFCBCFA8CF1C1F134
:102A500018018B40CB4040F8043B13E0042A09D313
:102A600011F8013B521E00F8013B5BB18B07F7D117
:102A7000D9E7121D5AB111F8013B521E00F8013B73
:102A800003B1F8D111001CBF002200F059F801BDBC
:102A900001BEFEE780B52349234A13688B423ED02E
:102AA00011602249096851622149916201685160AF
:102AB000416891608168D160C168116101695161AB
:102AC000416991618169D161C1691162F1EE101AA8
:102AD00011F0900F23D017499162016AD162416AC7
:102AE0001163816A5163C16A9163016BD163416B68
:102AF0001164816B5164C16B9164016CD164416C50
:102B00001165816C5165C16C9165016DD165416D37
:102B10001166816D5166C16D9166006ED06600F0E0
:102B20003EF801BDFAF9F8F7E007022828ED00E0C9
:102B3000A4A3A2A1ABAAA9A862F30F2262F31F4229
:102B4000401810F0030308D0C91A1FD3DB0748BF91
:102B500000F8012D28BF20F8022D130030B41446D0
:102B60001546103928BF20E93C00FAD8490728BF8C
:102B700020E90C0048BF40F8042D890028BF20F848
:102B8000022D48BF00F8012D30BC7047C91818BF8E
:102B900000F8012DCB0728BF00F8012D7047FEE794
:102BA0001CB50400002C01D0012000E000204122CF
:102BB000DFF8C015C0B200F0DFFCDFF8BC05012172
:102BC0002278D210802303FB0202237813F007033C
:102BD00011FA03F313602379DB10802202FB030058
:102BE000227912F0070211FA02F20260E068009006
:102BF0000098421E00920028FAD1DFF88025207943
:102C0000C010802303FB0020237913F0070311FA7F
:102C100003F30360E06800900098431E00930028CF
:102C2000FAD12378DB10802000FB0322207810F0FB
:102C3000070081401160E06800900098411E0091FB
:102C40000028FAD113BD1CB50400002C01D00120CE
:102C500000E000205522DFF81C15C0B200F08CFC0B
:102C6000DFF8180501212279D210802303FB02022C
:102C7000237913F0070311FA03F313602378DB10B1
:102C8000802202FB0300227812F0070211FA02F2FE
:102C90000260E06800900098421E00920028FAD17D
:102CA000DFF8D4242078C010802303FB0020237891
:102CB00013F0070311FA03F30360E0680090009833
:102CC000431E00930028FAD12379DB10802000FBFB
:102CD0000322207910F0070081401160E068009025
:102CE0000098411E00910028FAD113BD38B50400A8
:102CF0000D00002C01D0012000E000206A22DFF846
:102D00007414C0B200F038FCDFF870240121207880
:102D1000C010802303FB0020237813F0070311FA6F
:102D200003F30360EDB2002D0DD02379DB10802575
:102D3000DFF8440405FB0303207910F0070011FAC3
:102D400000F018600AE02079C010802303FB002007
:102D5000237913F0070311FA03F30360E06800908E
:102D60000098431E00930028FAD1DFF80C34207835
:102D7000C010802505FB0030257815F0070511FAF5
:102D800005F50560E06800900098451E0095002854
:102D9000FAD12578ED10802000FB0522207810F074
:102DA000070011FA00F010602079C010802202FBA9
:102DB0000033207910F007008140196031BD2DE902
:102DC000FC410400002C01D0012000E000208622FC
:102DD000DFF8A013C0B200F0CFFB0025DFF89C7332
:102DE00001262078C010802101FB0070217811F0AD
:102DF000070116FA01F10160DFF87C832079C01029
:102E0000802101FB0080217911F0070116FA01F100
:102E10000160002200216068C0B200F08EFCE06812
:102E200000900098411E00910028FAD12078C0102F
:102E3000802101FB0088207810F0070016FA00F0CE
:102E4000C8F80000E06800900098411E009100283A
:102E5000FAD16068C0B200F04DFC002800D0012516
:102E60002178C910802000FB0177207810F007003E
:102E700086403E60032201216068C0B200F05DFC24
:102E8000E06800900098411E00910028FAD12800C7
:102E9000C0B2BDE8F681F8B504000D00002C01D0E9
:102EA000012000E00020A822DFF8C812C0B200F024
:102EB00063FB80210800C0B2002852D02800C0B2B5
:102EC00008420DD00122207910F0070082402679B7
:102ED000F6108023DFF8A00203FB060632600CE048
:102EE0000122207910F0070082402679F610802315
:102EF000DFF8880203FB06063260C9B24908E068C1
:102F0000400800900098421E00920028FAD1012249
:102F1000237813F0070312FA03F32678F6108027BC
:102F2000DFF8540207FB06063360E0680090009863
:102F3000431E00930028FAD1207810F00700824049
:102F40002378DB108026DFF8340206FB03031A60C7
:102F5000E068400800900098421E00920028FAD1D4
:102F6000A8E72000FFF72BFF012801D1002000E097
:102F70000120C0B2F2BD2DE9FC4704008A46002CB6
:102F800001D0012000E00020C222DFF8E811C0B229
:102F900000F0F2FA00250826DFF8E0715FF0010882
:102FA0002078C010802101FB0070217811F007010A
:102FB00018FA01F10160E06800900098411E00914C
:102FC0000028FAD1DFF8B0912079C010802101FBF0
:102FD0000090217911F0070118FA01F10160002237
:102FE00000216068C0B200F0A8FB29E02078C01082
:102FF000802101FB0070217811F0070118FA01F11E
:103000000160E06800900098411E00910028FAD10C
:103010002078C010802101FB0090217811F0070179
:1030200018FA01F10160E06800900098411E0091DB
:103030000028FAD16068C0B200F05CFB50EA450598
:103040003000461EC0B20028D0D12178C91080209F
:1030500000FB0177207810F0070018FA00F8C7F895
:103060000080032201216068C0B200F066FBE068C6
:1030700000900098411E00910028FAD15146C9B233
:103080002000FFF733FE2800C0B2BDE8F68770B518
:1030900004000E001500002C01D0012000E00020EB
:1030A0004FF49C72DFF8CC10C0B200F065FA20003B
:1030B000FFF776FD217A4900C9B22000FFF7EBFE49
:1030C0003100C9B22000FFF7E6FE2900C9B2200096
:1030D000FFF7E1FE2000FFF7B6FD70BD2DE9F041DE
:1030E0000500884616001C00002D01D0012000E0DC
:1030F0000020204F4FF4FF723900C0B200F03CFABC
:10310000002E01D0012000E0002040F2FF12390023
:10311000C0B200F031FA2800FFF742FD297A4900D9
:10312000C9B22800FFF7B7FE4146C9B22800FFF731
:10313000B2FE2800FFF734FD297A490051F0010161
:10314000C9B22800FFF7A7FE0BE0002104E037001A
:103150007E1C002CF9D10121C9B22800FFF70BFF1A
:1031600038702000441E0028F1D12800FFF76BFDC5
:10317000BDE8F081B44C0810080031400400314033
:1031800038B504000D00002C01D0012000E0002023
:1031900040F29F223349C0B200F0EEF90020200037
:1031A000FFF7FEFC217A4900C9B22000FFF773FE49
:1031B0002900C9B22000FFF76EFE2000FFF743FD93
:1031C0002000FFF7EDFC217A490051F00101C9B25E
:1031D0002000FFF760FE01212000FFF7CCFE050074
:1031E0002000FFF730FD2800C0B232BD2DE9F843C2
:1031F000040088461700002C01D0012000E00020C8
:10320000089D1E00DFF85C9040F2BA224946C0B229
:1032100000F0B2F931002800C9B2C0B2814201D039
:10322000012000E0002040F2BB224946C0B200F07D
:10323000A3F93000C0B220602800C0B2606084F8FA
:103240000880E7600323012201213000C0B200F0B2
:103250009CFA0323012201212800C0B200F095FA54
:10326000BDE8F183B44C081082B00020019000202A
:1032700000900020019009E00098401C0090009808
:10328000B0F5005FF8D30198401C01900198B0F5AB
:10329000805F02D200200090F1E702B0704780B555
:1032A0000100002000F0FDFA01BD2DE9F043ADF56D
:1032B000137D0700884616001C000020ADF80200B0
:1032C0000020ADF80000002002900020ADF80400BE
:1032D0000020ADF806004046FDF7CCFD0290DFF877
:1032E00058532888002801D028698047DFF84C030C
:1032F0000078002800F033812888002800F0118130
:10330000BDF90600411CADF806103A00010089B273
:103310000020EB68984747464046FDF7ABFD02901A
:103320006988A87991FBF0F0ADF804003800471CDB
:1033300000780028FAD10020ADF800000EE07F1ED2
:1033400038782F2802D038785C2804D1BDF80000E6
:10335000401CADF800000298401E0290BDF800002D
:10336000022802DA02980028E9D50298002806D43B
:103370007A1CDFF8CC1253A800F0A4FA0EE0BDF8D6
:103380000000002805D13A00AE4953A800F09AFA8F
:1033900004E03A00AA4953A800F094FA0020ADF8DE
:1033A000020042E0BDF80010BDF80070BDF8022038
:1033B00053AB92B2BDF90400424312FA87F01A5C93
:1033C00043A889B24254BDF80000401CADF800008B
:1033D000BDF8001089B2BDF9040081420EDA53A88D
:1033E000FDF748FDBDF80030BDF8022092B2BDF9EE
:1033F00004104A4312FA83F18842D3D2002243A92F
:10340000BDF800000A54BDF90600411CADF80610D5
:1034100043AAE97911FB00F189B20020EB689847D3
:10342000BDF80200401CADF80200BDF8027053A8C0
:10343000FDF720FDBDF90410B0FBF1F0401CBFB258
:10344000874203D20020ADF80000C1E732007E4978
:1034500053A800F037FABDF90600411CADF806107C
:1034600053AAE97911FB00F189B20020EB68984773
:10347000002C74D00020ADF8020041E0BDF800102F
:10348000BDF80020BDF802309BB2BDF904004343F3
:1034900013FA82F0205C43AA89B25054BDF80000B0
:1034A000401CADF80000BDF8000080B2BDF904106A
:1034B00088420EDA2000FDF7DDFCBDF80030BDF8D3
:1034C000022092B2BDF904104A4312FA83F18842F5
:1034D000D4D2002043A9BDF800208854BDF90600CD
:1034E000411CADF8061043AAE97911FB00F189B23D
:1034F0000020EB689847BDF80200401CADF80200C0
:10350000BDF802602000FDF7B5FCBDF90410B0FB6A
:10351000F1F0401CB6B2864221D20020ADF8000086
:10352000C1E74FF4807100220DF10C094846FFF706
:1035300003FB3800A9688847002C07D000943300AB
:103540004246424903A800F0BDF905E03300424677
:103550003F4903A800F0B6F903A8A96888470DF50C
:10356000137DBDE8F08310B514002200D2B2002014
:1035700000F088F9200010BD38B50C001500C0B26D
:10358000002803D133480078002800D131BD3249EA
:103590000878002800D0FEE70878401C087000F08A
:1035A000C5F900232A0021002C48FFF77EFEFFF713
:1035B0005BFEF6E710B514001A00C0B2002808D16F
:1035C0001E480078002804D00B0021002448FFF793
:1035D0006CFE10BD002101804FF6FF71418081809B
:1035E000FF218171C171002181600021C160002132
:1035F00001617047104902880A8042884A808288A7
:103600008A8082798A71C279CA7182688A60C26846
:10361000CA6000690861012108480170704700B55F
:1036200085B06846FFF7D6FF0E4802906846FFF760
:10363000E1FF05B000BD000080080228E408022870
:10364000904F0810704F08109C4F0810A44E08109F
:10365000404F08100E070228E5080228804F081086
:10366000A84F08109F3208100069C84010F00100F0
:103670007047012212FA01F181607047012212FAAB
:1036800001F141607047012212FA01F1C1607047F7
:1036900010B48900446C0F238B409C4312F00F023E
:1036A00012FA01F12143416410BC704780B5C9B2E0
:1036B00000290FD00100C9B2082391FBF3F203FBEC
:1036C0001211564BC0B2C010802250431844FFF76D
:1036D000D0FF0EE00100C9B2082391FBF3F203FB17
:1036E00012114E4BC0B2C010802250431844FFF755
:1036F000C5FF01BD80B50100C9B2082391FBF3F2FB
:1037000003FB1211454BC0B2C01080225043184435
:10371000FFF7AAFFC0B202BD80B50100C9B20823FD
:1037200091FBF3F203FB12113C4BC0B2C01080229C
:1037300050431844FFF7A7FF01BD10B5C9B20029D7
:103740000BD1D2B2002A02D0022A02D003E00F220B
:103750000BE00B2209E00A2207E0D2B2042A01D1D1
:103760000C2200E00E2212F007020100C9B2082468
:1037700091FBF4F304FB1311284CC0B2C01080235A
:1037800058432044FFF784FF10BD2DE9F8418DB068
:103790000500884614001E00342100226F463800C0
:1037A000FFF7CAF95FFA88F8B8F1000F0ED1F6B248
:1037B000002E02D0022E03D005E00F2001900DE074
:1037C000082001900AE00820019007E0F6B2042EDC
:1037D00002D10F20019001E00E2001902800C0B21C
:1037E000C02811D02900C9B208236A4691FBF3F022
:1037F00003FB1011094E2B00DBB2DB10802043438A
:1038000006EB030000F023F92100C9B22800C0B282
:10381000FFF74CFF0EB0BDE8F08100000000314022
:10382000C0F840127047D0F80802C005C00D7047BC
:10383000D0F80802C0F3C030704738B50500280042
:10384000FFF7F1FF04002800FFF7F2FF0419002C36
:1038500001D1012000E00020C0B232BD38B5050022
:10386000DFF85C40C9B22800C0B254F82000FFF76E
:10387000D7FF2800C0B254F82000FFF7DEFF002871
:10388000F7D031BD70B506000D00140006E02978B0
:103890003000C0B2FFF7E2FF641E6D1C002CF6D1B1
:1038A00070BD38B505000C0005E021782800C0B2D5
:1038B000FFF7D4FF641C20780028F6D131BD00004A
:1038C000F80602280CB430B583B00A4606A9029166
:1038D000044600250194009502AB01A908487844EC
:1038E0001E30FCF7D0FB01990D7000284EBF044636
:1038F0000198041B204603B030BC5DF80CFB00BFF0
:103900002BD5FFFF002800D162B607490868401C8C
:103910000860704772B604490868002802D0086839
:10392000401E086008687047C808022880B5FFF785
:10393000F1FF00F0CBF801BD30B4614B1818C0099D
:10394000604B13EB001304290DD21D681F24C8001F
:103950008440A543D2B212F01F02C90012FA01F14D
:10396000294319600CE00D1F5C681F21E8008140AD
:103970008C43D2B212F01F02ED00AA4022435A60DB
:1039800030BC7047002A04D1012212FA01F14160D3
:1039900003E0012212FA01F18160704710B489003E
:1039A000446C0F238B409C4312F00F0212FA01F17A
:1039B0002143416410BC704710B4846C01238B40D8
:1039C0009C4312F0010212FA01F12143816410BC00
:1039D000704710B4C46C01238B409C4312F0010269
:1039E00012FA01F12143C16410BC704710B44900C0
:1039F0001031C46C03238B409C4312F0030212FA73
:103A000001F12143C16410BC70474269012212FADE
:103A100001F141614069704710B4846901238B4012
:103A20009C4312F0010212FA01F12143816110BCA2
:103A3000704710B44900046C03238B409C4312F080
:103A4000030212FA01F12143016410BC7047F8B57A
:103A500004000F0015000026002C2ED0002D2CD0C5
:103A60002A6839002000FFF78DFF2A7A39002000EC
:103A7000FFF762FF6A6939002000FFF79DFFAA691E
:103A800039002000FFF7A5FFEA6939002000FFF7A1
:103A9000ADFF6A6839002000FFF780FFEA6839004F
:103AA0002000FFF7C6FF39002000FFF7AEFF2A69AC
:103AB00039002000FFF7B0FF00E0034E3000F2BDF8
:103AC0000000CFBF0000304001005A0000200BE092
:103AD0000749802202FB00F28B5823F0004380222A
:103AE00002FB00F28B50401C3F28F1DB70470000C6
:103AF000000058402DE9F84381460C0015000026CF
:103B000000275FEA4909DFF8BC83002217214046FD
:103B1000FFF7BDFA4A46D2B215214046FFF7B7FA81
:103B20002200D2B216214046FFF7B1FA2A00D2B2E3
:103B300021214046FFF7ABFA4C2214214046FFF703
:103B4000A6FA02E0022000F0A4FA22214046FFF784
:103B500017FB000606D43800471C80B2B0F5807F02
:103B6000F0DB01263000C0B2BDE8F28370B5020080
:103B70000E0000245200D34D52F00102D2B21521A2
:103B80002800FFF784FA3200D2B216212800FFF78E
:103B90007EFA012217212800FFF779FA4C2214211E
:103BA0002800FFF774FA02E0022000F072FA2221E6
:103BB0002800FFF7E5FAC00705D42000441C80B2B6
:103BC000B0F5807FF0DB02212800FFF7D9FA70BD45
:103BD00038B502000D005200BA4C52F00102D2B2C8
:103BE00015212000FFF753FA2A00D2B21621200037
:103BF000FFF74DFA062217212000FFF748FA6C2242
:103C000014212000FFF743FA31BD70B500240026CF
:103C1000002507E00F21AB48FFF7B2FA06000A20A3
:103C200000F037FAF6B26B2E06D02800451C80B2A1
:103C3000B0F5807FEEDB01242000C0B270BD70B50E
:103C400000240026002507E00D210D20FFF78EFF40
:103C500006000A2000F01DFAF6B2FF2E06D028005A
:103C6000451C80B2B0F5807FEEDB01242000C0B29D
:103C700070BDE0B506236A4628219248FFF72EFA68
:103C80009DF801109DF8000050EA01208E4908803F
:103C90009DF803109DF8020050EA01208B4908802E
:103CA0009DF805109DF8040050EA0120884908801D
:103CB00007BDE0B506236A4622218248FFF70EFAC7
:103CC0009DF801109DF8000050EA0120814908800C
:103CD0009DF803109DF8020050EA01207E490880FB
:103CE0009DF805109DF8040050EA01207B490880EA
:103CF00007BD1CB5734C402201212000FFF7C7F916
:103D000022212000FFF73CFAC0071CD506236A4693
:103D100002212000FFF7E2F9684642789DF8001082
:103D200051EA02216E4A11809DF80310807850EA12
:103D300001206C4908809DF805109DF8040050EAA8
:103D4000012069490880002201212000FFF79FF926
:103D500013BD7CB500240A2000F09BF9594D1120B9
:103D6000009012233B226B212800FFF73FFA00222C
:103D700001212800FFF78BF9012212212800FFF70B
:103D800086F9022000F085F9002201212800FFF7C2
:103D90007EF9FFF73AFF002808D040F27713534A24
:103DA00053490020FFF706FC012487E003220D2180
:103DB0002800FFF76CF93C2210212800FFF767F973
:103DC0004C4E4D4830602000C0B2012876D05C22B5
:103DD00011212800FFF75BF9484870602000C0B24D
:103DE00001286BD0442212212800FFF750F902224B
:103DF00013212800FFF74BF9002214212800FFF7B8
:103E000046F9002215212800FFF741F9002216216A
:103E10002800FFF73CF9012218212800FFF737F9A5
:103E2000402201212800FFF732F9802214212800C6
:103E3000FFF72DF9022000F02CF9002214212800B0
:103E4000FFF725F9022000F024F980220A210D2035
:103E5000FFF750FE022000F01CF900220A210D207D
:103E6000FFF748FE022000F014F9FFF7E8FE0028F3
:103E700008D04FF4F5731D4A21490020FFF79AFB43
:103E800001241BE0192209210D20FFF733FE1D48F4
:103E9000B0602000C0B2012810D001220B210D20FB
:103EA000FFF728FE00210D20FFF792FE00220121DE
:103EB0002800FFF7ECF8142000F0EBF82000C0B267
:103EC00076BD000094080228D6080228D8080228E7
:103ED000DA080228D0080228D2080228D4080228CA
:103EE000DC080228DE080228E00802286C4C0810D2
:103EF000604D0810EC06022800108045CDCC6441CE
:103F0000F04D081000803B45022801D301200FE04E
:103F10000B00DBB2042B01DB012009E0A74B03EB14
:103F20008000C9B2405C824201D3012000E0002041
:103F30007047F8B504000F0015001E00022C01D3D5
:103F400001201FE02A003900C9B22000FFF7DCFF82
:103F5000012801D1012015E03800C0B2002814D199
:103F6000B6F5807F0FD296494FF40050444301EBE1
:103F7000040000EB850010F58051086866F30F20FF
:103F800008600020F2BD0120FCE7FFB2012F13D131
:103F9000B6F5803F0ED28A494FF40050444301EBFE
:103FA000040000EB850010F5A051086866F31720A7
:103FB0000860E6E70120E5E70120E3E700B2001230
:103FC000C0B27047F8B504000E001700200000B220
:103FD000FFF7F4FF05002800C0B2022801D301203A
:103FE00028E03A003100C9B22800C0B2FFF78CFFC8
:103FF000012801D101201DE071492A00D2B24FF4FD
:10400000005042430A442000C0B202EB8000D0F8C6
:10401000002CF6B266F3092267F30702EDB24FF403
:104020000050454301EB0500E4B200EB8400C0F80A
:10403000002C0020F2BD70B504000D001600022C0B
:1040400001D3012024E032002900C9B22000FFF78B
:104050005BFF012801D101201AE059494FF40050BB
:1040600000FB04F0085850F0004050F0407050F44D
:104070007F00EDB265F3092066F307004FF40052AC
:1040800002FB04F288504FF40050444308590020CA
:1040900070BDF8B506004FF4FA504643494D4A4CFE
:1040A00000212A788020424304EB020000F053F9FB
:1040B0001AE029788020414304EB010000F04DF91B
:1040C000B842F6D3414FBE1929788020414304EB12
:1040D000010000F042F93F1839002A78802042435D
:1040E00004EB020000F037F94CF25137BE42E0D247
:1040F00029788020414304EB010000F02EF986422C
:10410000F6D2F1BD38B594B0502100226C462000A3
:10411000FEF712FD2E4C00220121B4F90000FFF73A
:1041200051FFB4F90000FFF749FF092300220121E4
:10413000C0B2FFF7FEFEB4F90000FFF73FFF002218
:104140000121C0B2FFF777FF5FF0FF300090002041
:104150008DF8040000208DF8050000208DF8060081
:1041600000208DF8080003208DF8440001201290F3
:1041700001208DF80700134D134C69462A788020E2
:10418000424304EB020000F025F8297880204143E7
:1041900004EB010000F0DAF800212A788020424385
:1041A00004EB020000F0D7F829788020414304EBAB
:1041B000010000F0D4F815B030BD0000C04F081069
:1041C000000004400F07022800005940B03CFFFFE8
:1041D0000C07022810B4012291F84C30052B03D2B1
:1041E00091F84D30052B01D31000A3E0002800F01A
:1041F000A080002900F09D804F4A12684B7963F33C
:1042000092428B7913F0030363F311420B7A13F09C
:10421000070363F31A62CB7963F39E720B7D63F33A
:10422000000291F8243063F3410202600B7910F12F
:104230003002146863F3070414604A79012A0BD131
:104240008A79002A02D10022826007E08A79012A55
:1042500004D10A68826001E001228260CA680261BA
:104260000A694261CA6982610A6AC2610A680262B5
:10427000324A12680B7E03F0FF0363F3070291F8E2
:10428000303003F0FF0363F3174291F8403003F03E
:10429000FF0363F31F6291F8483003F0FF0363F3F9
:1042A0000F224264264A126891F8383003F0FF0367
:1042B00063F3070291F8283003F0FF0363F30F2242
:1042C0008264204A12688B7D13F0030363F30102BA
:1042D00091F8253013F0030363F38B2291F82C300F
:1042E00013F0030363F3051291F8343013F0030362
:1042F00063F3092291F83C3013F0030363F3871250
:1043000091F8443013F0030363F38302C2640E4A4E
:10431000126891F84C3013F0070363F3020291F82E
:104320004D3013F0070363F306124265497D816740
:104330000022100010BC7047E84F0810EC4F081026
:10434000F04F0810F44F0810F84F0810016851F0B2
:10435000004101607047816070478068704710F1CC
:104360004001086850F010000860704718B58DB023
:10437000704800F0FDF8FFF752F9032301220121F4
:104380009820FFF702FA00200C9000200B906A485A
:104390000A9000200990002008900020079000203B
:1043A00006900020059000200490644C2000FCF74B
:1043B00087FF0CA860600BA8A0600AA8E06009A8AD
:1043C000206108A8606107A8A06106A8E06105A8AF
:1043D000206204A8606205E0594800F0D7F89820F0
:1043E000FFF79AF9FFF7B5FC0028F5D1FFF741FC7C
:1043F000FFF75FFCFFF77DFC9FED4C0A51485249E7
:10440000B1F9001000EE901AB8EEE01AD0ED000AF3
:10441000C1EE200A60EE800ACDED0C0A4B49B1F9DD
:10442000001000EE901AF8EEE00A90ED001AC0EECF
:10443000810A60EE800ACDED0B0A4549B1F9001002
:1044400000EE901AB8EEE01AD0ED000AC1EE200A94
:1044500020EE800A8DED0A0A3E49B1F9001000EE07
:10446000101AB8EEC00AD0ED010A80EE200A8DEDD8
:10447000090A3949B1F9001000EE101AF8EEC00A25
:1044800090ED010A80EE800A8DED080A3349B1F9FA
:10449000001000EE101AF8EEC00A90ED010A80EE4E
:1044A000800A8DED070A2E49B1F9001000EE101AAE
:1044B000F8EEC00A90ED020A80EE800A8DED060A41
:1044C0002849B1F9001000EE101AB8EEC00AD0ED7C
:1044D000020A80EE200A8DED050A2349B1F9001089
:1044E00000EE101AF8EEC00A90ED020A80EE800A83
:1044F0008DED040A9FED0E0A2000FCF7DBFF94ED22
:10450000180A94ED171AD4ED161AB7EEC00A8DEDFD
:10451000020BB7EEE10A8DED000BB7EEC10A53ECCA
:10452000102B124800F032F860E700BF0000C842CC
:104530000AD7A33B80B2E60E000075C4100702281C
:10454000F84E0810EC060228D6080228D8080228DF
:10455000DA080228D0080228D2080228D408022843
:10456000DC080228DE080228E0080228884D08102E
:1045700080B50549086000F01DF8FFF7C3FD002075
:10458000FFF7C0F901BD0000C40802280EB41EB533
:10459000024605A801900024009401AB01210448C3
:1045A00078440C30FBF76FFD03B010BC5DF810FBD6
:1045B000A909000010B5002143480160BFF34F8FE7
:1045C00042480168C1F34E32C1F3C90343F6E074B7
:1045D00014EA421454EA83743D4804601800431EF0
:1045E0000028F3D11000421E0028EDD1BFF34F8FF9
:1045F000BFF36F8FBFF34F8FBFF36F8F002135482D
:104600000160BFF34F8FBFF36F8F00F001F810BD53
:1046100038B586B0684630491822FCF783FC6846F6
:10462000FDF732FFC0B200280DD02C4C18222C49C7
:104630002000FEF7F5F90020E0754E2129480160C1
:104640000020FEF725FA284C2000FEF7BFF9C0B283
:1046500000280DD0214D182221492800FEF7E0F94D
:104660000020E87550211F4801600020FEF710FA75
:104670001E49206808600A681D4882181D48B2FB60
:10468000F0F21D4802601D480A6802F2E7324FF45A
:104690007A71B2FBF1F1016001684FF400404143CF
:1046A0001748016007B030BD80B500F02DF8154AFD
:1046B000116851F470011160BFF34F8FBFF36F8F1A
:1046C00000F026F801BD000084ED00E080ED00E080
:1046D00074EF00E050EF00E0284F0810680802284F
:1046E000144C0810A4080228B0080228B4080228B4
:1046F0003F420F0040420F00BC080228B8080228C1
:10470000C008022888ED00E0EFF3108072B6704711
:1047100080F310887047000038B5FFF7C5FF00F040
:1047200042F800F0C9F871490868800312D4BFF359
:104730004F8FBFF36F8F00226D480260BFF34F8F22
:10474000BFF36F8F086850F400300860BFF34F8FDD
:10475000BFF36F8F0868C00324D40022654802604D
:10476000BFF34F8F64480268C2F34E33C2F3C904EB
:1047700043F6E07515EA431555EA84755F48056010
:104780002000441E0028F3D11800431E0028EDD15C
:10479000BFF34F8F086850F480300860BFF34F8F2D
:1047A000BFF36F8F31BD70B586B06846544918228B
:1047B000FCF7B8FB00200AE06A460100C9B202EB30
:1047C000C1014968491C11F0070F0DD1401C0100BF
:1047D000C9B2032909D26A460100C9B212F83110E0
:1047E00011F0070FE8D0FEE7FEE7464C207810F006
:1047F000070F00D0FEE7444D2868401C10F0070F5B
:1048000000D0FEE7002622E069463000C0B201EB8E
:10481000C00041683000C0B252F8300000F043F8E8
:1048200014E000200028EFD02168491E3000C0B2FB
:1048300052F8300000F037F868463100C9B200EB9A
:10484000C10041682868401C00F02DF8761C30003B
:10485000C0B2032825D26A463000C0B252F83000F8
:10486000002813D020683100C9B252F831108842B4
:104870000AD369463000C0B201EBC000416820682D
:10488000814201D30120CDE70020CBE7694630000B
:10489000C0B201EBC000406821688842C1D301204A
:1048A000C0E706B070BD0022002302E0C0E900238B
:1048B00008308842FAD3704730B4144B9B08144830
:1048C0001449002208E01400E4B251F82450140006
:1048D000E4B240F82450521C15001C00EDB2E4B2C2
:1048E000A542F0D30C49086030BC704714ED00E0DD
:1048F00050EF00E084ED00E080ED00E060EF00E0CC
:10490000104F08105C4B0810604B0810800000002E
:10491000000902280000081008ED00E0010009B2BB
:10492000002908D4012210F01F018A404F4900B22B
:10493000400941F820207047FEE780B54C480068E8
:104940004C4801680800C00F002805D04A48890576
:10495000890D50F8210080470020FFF7DFFF01BDDF
:1049600080B546480068464801680800C00F002826
:1049700005D041488905890D50F821008047012064
:10498000FFF7CCFF01BD80B53E4800683E48016896
:104990000800C00F002805D037488905890D50F858
:1049A000210080470220FFF7B9FF01BD80B53748DD
:1049B0000068374801680800C00F002805D02E485D
:1049C0008905890D50F8210080470320FFF7A6FFD5
:1049D00001BD80B52F4800682F4801680800C00F4E
:1049E000002805D024488905890D50F8210080470A
:1049F0000420FFF793FF01BD80B5284800682848D0
:104A000001680800C00F002805D01B488905890DE2
:104A100050F8210080470520FFF780FF01BD80B5D9
:104A200020480068204801680800C00F002805D011
:104A300011488905890D50F8210080470620FFF7AD
:104A40006DFF01BD80B5194800681948016808006C
:104A5000C00F002805D008488905890D50F82100AD
:104A600080470720FFF75AFF01BD000080E200E009
:104A7000C84F08100001204000000228CC4F081049
:104A800004012040D04F081008012040D44F0810E6
:104A90000C012040D84F081010012040DC4F0810B6
:104AA00014012040E04F081018012040E44F081086
:104AB0001C01204072B61D4908684FEA102000F022
:104AC0000F000E2808BF1A490D2808BF19490728EA
:104AD00008BF1949082808BF1849086820F00B00CA
:104AE00008600868BFF34F8F154816490860BFF388
:104AF0004F8F1549086840F007000860134908689F
:104B000040F007000860BFF34F8FBFF36F8F0020A6
:104B10000021124AE2E802016A45FBD10C4FB84776
:104B20000C4FB8470C4FB847FEE70000000020408C
:104B30000C0020400C0420400C0820400C0C2040AD
:104B40000000081008ED00E090EF00E094EF00E0B6
:104B500019470810354D0810DD4E081000FF0728D2
:104B6000FFFF0728453A5C70726F6A6563745C7377
:104B70006D617274206361725C6D6F646C65636FEC
:104B800064655C6C69627261726965735C73646BA5
:104B90005C747669696268346D5C7372635C6472BC
:104BA00069766572735C737973636C6B5C63795F50
:104BB000737973636C6B2E6800000000453A5C707B
:104BC000726F6A6563745C736D6172742063617285
:104BD0005C6D6F646C65636F64655C6C6962726167
:104BE000726965735C73646B5C747669696268345E
:104BF0006D5C7372635C647269766572735C737901
:104C000073636C6B5C63795F737973636C6B2E6336
:104C100000000000453A5C70726F6A6563745C73F3
:104C20006D617274206361725C6D6F646C65636F3B
:104C300064655C6C69627261726965735C73646BF4
:104C40005C747669696268346D5C7372635C7379F5
:104C50007374656D5C73797374656D5F747669697F
:104C60006268346D5F636D372E630000453A5C7097
:104C7000726F6A6563745C736D61727420636172D4
:104C80005C6D6F646C65636F64655C6C69627261B6
:104C9000726965735C7A665F6465766963655C7A80
:104CA000665F6465766963655F696D753936337211
:104CB000612E6300453A5C70726F6A6563745C7361
:104CC0006D617274206361725C6D6F646C65636F9B
:104CD00064655C6C69627261726965735C7A665F57
:104CE0006472697665725C7A665F64726976657211
:104CF0005F736F66745F6969632E630030B400246C
:104D000012E050F8043BDA0744BF4B445B1E091F16
:104D1000042943F8044BFAD21A468D0744BF1C807D
:104D2000921CCB0748BF147050F8041B0029E8D12F
:104D300030BC704710B5034A7A440832024C7C44B8
:104D4000A41D03E08C000000A800000004E011682E
:104D5000101D114488470246A242F8D110BD000040
:104D6000494D5539363352412061636320616E6489
:104D7000206779726F2073656C6620636865636B6A
:104D8000206572726F722E000D0A20726F6C6C3A81
:104D900025662020207961773A25662020207069D9
:104DA0007463683A2566200D0A0000004EF68851AB
:104DB000CEF20001086840F470000860BFF34F8F26
:104DC000BFF36F8F4FF00170E1EE100A70470000E3
:104DD0002DFFFFFFD801000010070228000000008F
:104DE000B7BFFFFF540200007C0000000000022853
:104DF000494D553936335241206D61672073656CDA
:104E00006620636865636B206572726F722E0000A6
:104E100004207146084202D0EFF3098001E0EFF36D
:104E2000088000B50149884700BD0000952A081098
:104E300080B58DF80000012269460120FEF793FB42
:104E4000012802D19DF8000002BD4FF0FF3002BDE5
:104E5000801C800803D0401C801EFCD100BF70471E
:104E6000EFF3108072B6704780F31088704700002F
:104E700000F00EF8002801D0FFF75CFFAFF30080D0
:104E80000020AFF30080FFF771FA00F003F8000094
:104E90000020704700F000B807463846FCF706FAD5
:104EA000FBE700000D0A66696C65202573206C69BC
:104EB0006E652025643A2025732E0D0A000000003F
:104EC00004207146084201D0EFF30980EFF3088017
:104ED00000B50149884700BDB54F08100548014697
:104EE00003B4684680F30988AFF30080FFF75EFFE4
:104EF000FFF7BEFFA5EDF5FE0D0A20696D75393689
:104F000033726120696E6974206572726F722E004F
:104F100000000228FFFF072800000020FF3F0020BC
:104F200000000000FF3F000000127A0000000000B7
:104F30000024F400008000000080000000800000D9
:104F40000D0A66696C65202573206C696E652025E5
:104F5000642E0D0A0000000038B505460C462046B8
:104F6000FFF766FFA04218BF0025284632BD0000AB
:104F700066696C653A206D646B2F25730000000034
:104F8000417373657274206572726F720000000065
:104F900066696C653A202573000000006C696E65D7
:104FA0003A202564000000004C6F67206D65737324
:104FB00061676500816911F8021CC9B20160704720
:104FC00003010000101100100000000000000000AC
:104FD00000000000000000000000000000000000D1
:104FE00000000000000000000000000000000000C1
:104FF000000000000000000000000000FFF7FEBFFE
:10500000FFF706BFFFF704BFFFF702BFFFF7FEBFC2
:10501000FFF7FEBFFFF7FEBFFFF7FEBFFFF7FEBFC4
:10502000FFF7FEBFFFF7FEBFFFF7FEBFFFF7FEBFB4
:10503000FFF7FEBFFFF7FEBFF002FF39490810047B
:10504000F1FF04F1FF04F1FF04F1FF04F1FF04F1AB
:105050007704101100108045CDCC644100803B45A1
:105060000000604000006504126404126304000440
:10507000624077010106000000000000000000000F
:105080000000000000000000000000000000000020
:105090000000000000000000000000000000000010
:1050A0000000000000000000000000000000000000
:1050B00000000000000000000000000000000000F0
:1050C00000000000000000000000000000000000E0
:1050D00000000000000000000000000000000000D0
:1050E00000000000000000000000000000000000C0
:1050F00000000000000000000000000000000000B0
:10510000000000000000000000000000000000009F
:10511000000000000000000000000000000000008F
:10512000000000000000000000000000000000007F
:10513000000000000000000000000000000000006F
:10514000000000000000000000000000000000005F
:10515000000000000000000000000000000000004F
:10516000000000000000000000000000000000003F
:0B517000000000000000000000000034
:0400000510084EDDB4
:00000001FF
